{
  "contractName": "StakingToken",
  "abi": [
    {
      "inputs": [],
      "stateMutability": "nonpayable",
      "type": "constructor"
    },
    {
      "anonymous": false,
      "inputs": [
        {
          "indexed": true,
          "internalType": "address",
          "name": "owner",
          "type": "address"
        },
        {
          "indexed": true,
          "internalType": "address",
          "name": "spender",
          "type": "address"
        },
        {
          "indexed": false,
          "internalType": "uint256",
          "name": "value",
          "type": "uint256"
        }
      ],
      "name": "Approval",
      "type": "event"
    },
    {
      "anonymous": false,
      "inputs": [
        {
          "indexed": true,
          "internalType": "address",
          "name": "from",
          "type": "address"
        },
        {
          "indexed": true,
          "internalType": "address",
          "name": "to",
          "type": "address"
        },
        {
          "indexed": false,
          "internalType": "uint256",
          "name": "value",
          "type": "uint256"
        }
      ],
      "name": "Transfer",
      "type": "event"
    },
    {
      "anonymous": false,
      "inputs": [
        {
          "indexed": false,
          "internalType": "string",
          "name": "reason",
          "type": "string"
        }
      ],
      "name": "createStakeFailed",
      "type": "event"
    },
    {
      "anonymous": false,
      "inputs": [
        {
          "indexed": false,
          "internalType": "string",
          "name": "reason",
          "type": "string"
        }
      ],
      "name": "withdrawStakeFailed",
      "type": "event"
    },
    {
      "inputs": [
        {
          "internalType": "address",
          "name": "owner",
          "type": "address"
        },
        {
          "internalType": "address",
          "name": "spender",
          "type": "address"
        }
      ],
      "name": "allowance",
      "outputs": [
        {
          "internalType": "uint256",
          "name": "",
          "type": "uint256"
        }
      ],
      "stateMutability": "view",
      "type": "function",
      "constant": true
    },
    {
      "inputs": [
        {
          "internalType": "address",
          "name": "spender",
          "type": "address"
        },
        {
          "internalType": "uint256",
          "name": "amount",
          "type": "uint256"
        }
      ],
      "name": "approve",
      "outputs": [
        {
          "internalType": "bool",
          "name": "",
          "type": "bool"
        }
      ],
      "stateMutability": "nonpayable",
      "type": "function"
    },
    {
      "inputs": [
        {
          "internalType": "address",
          "name": "account",
          "type": "address"
        }
      ],
      "name": "balanceOf",
      "outputs": [
        {
          "internalType": "uint256",
          "name": "",
          "type": "uint256"
        }
      ],
      "stateMutability": "view",
      "type": "function",
      "constant": true
    },
    {
      "inputs": [],
      "name": "decimals",
      "outputs": [
        {
          "internalType": "uint8",
          "name": "",
          "type": "uint8"
        }
      ],
      "stateMutability": "view",
      "type": "function",
      "constant": true
    },
    {
      "inputs": [
        {
          "internalType": "address",
          "name": "spender",
          "type": "address"
        },
        {
          "internalType": "uint256",
          "name": "subtractedValue",
          "type": "uint256"
        }
      ],
      "name": "decreaseAllowance",
      "outputs": [
        {
          "internalType": "bool",
          "name": "",
          "type": "bool"
        }
      ],
      "stateMutability": "nonpayable",
      "type": "function"
    },
    {
      "inputs": [
        {
          "internalType": "address",
          "name": "spender",
          "type": "address"
        },
        {
          "internalType": "uint256",
          "name": "addedValue",
          "type": "uint256"
        }
      ],
      "name": "increaseAllowance",
      "outputs": [
        {
          "internalType": "bool",
          "name": "",
          "type": "bool"
        }
      ],
      "stateMutability": "nonpayable",
      "type": "function"
    },
    {
      "inputs": [],
      "name": "name",
      "outputs": [
        {
          "internalType": "string",
          "name": "",
          "type": "string"
        }
      ],
      "stateMutability": "view",
      "type": "function",
      "constant": true
    },
    {
      "inputs": [],
      "name": "symbol",
      "outputs": [
        {
          "internalType": "string",
          "name": "",
          "type": "string"
        }
      ],
      "stateMutability": "view",
      "type": "function",
      "constant": true
    },
    {
      "inputs": [],
      "name": "totalSupply",
      "outputs": [
        {
          "internalType": "uint256",
          "name": "",
          "type": "uint256"
        }
      ],
      "stateMutability": "view",
      "type": "function",
      "constant": true
    },
    {
      "inputs": [
        {
          "internalType": "address",
          "name": "recipient",
          "type": "address"
        },
        {
          "internalType": "uint256",
          "name": "amount",
          "type": "uint256"
        }
      ],
      "name": "transfer",
      "outputs": [
        {
          "internalType": "bool",
          "name": "",
          "type": "bool"
        }
      ],
      "stateMutability": "nonpayable",
      "type": "function"
    },
    {
      "inputs": [
        {
          "internalType": "address",
          "name": "sender",
          "type": "address"
        },
        {
          "internalType": "address",
          "name": "recipient",
          "type": "address"
        },
        {
          "internalType": "uint256",
          "name": "amount",
          "type": "uint256"
        }
      ],
      "name": "transferFrom",
      "outputs": [
        {
          "internalType": "bool",
          "name": "",
          "type": "bool"
        }
      ],
      "stateMutability": "nonpayable",
      "type": "function"
    },
    {
      "inputs": [
        {
          "internalType": "uint256",
          "name": "_stake",
          "type": "uint256"
        }
      ],
      "name": "createStake",
      "outputs": [],
      "stateMutability": "nonpayable",
      "type": "function"
    },
    {
      "inputs": [],
      "name": "withdrawStake",
      "outputs": [],
      "stateMutability": "nonpayable",
      "type": "function"
    }
  ],
  "bytecode": "0x60806040523480156200001157600080fd5b506040518060400160405280600b81526020016a29ba30b5b2afaa37b5b2b760a91b8152506040518060400160405280600381526020016253544b60e81b81525081600390805190602001906200006a92919062000193565b5080516200008090600490602084019062000193565b505050620000a633670de0b6b3a7640000612710620000a0919062000294565b620000ac565b62000309565b6001600160a01b038216620000de5760405162461bcd60e51b8152600401620000d59062000239565b60405180910390fd5b620000ec600083836200018e565b806002600082825462000100919062000279565b90915550506001600160a01b038216600090815260208190526040812080548392906200012f90849062000279565b90915550506040516001600160a01b038316906000907fddf252ad1be2c89b69c2b068fc378daa952ba7f163c4a11628f55a4df523b3ef906200017490859062000270565b60405180910390a36200018a600083836200018e565b5050565b505050565b828054620001a190620002b6565b90600052602060002090601f016020900481019282620001c5576000855562000210565b82601f10620001e057805160ff191683800117855562000210565b8280016001018555821562000210579182015b8281111562000210578251825591602001919060010190620001f3565b506200021e92915062000222565b5090565b5b808211156200021e576000815560010162000223565b6020808252601f908201527f45524332303a206d696e7420746f20746865207a65726f206164647265737300604082015260600190565b90815260200190565b600082198211156200028f576200028f620002f3565b500190565b6000816000190483118215151615620002b157620002b1620002f3565b500290565b600281046001821680620002cb57607f821691505b60208210811415620002ed57634e487b7160e01b600052602260045260246000fd5b50919050565b634e487b7160e01b600052601160045260246000fd5b610fc580620003196000396000f3fe608060405234801561001057600080fd5b50600436106100cf5760003560e01c8063395093511161008c578063a457c2d711610066578063a457c2d714610192578063a9059cbb146101a5578063bed9d861146101b8578063dd62ed3e146101c0576100cf565b8063395093511461016457806370a082311461017757806395d89b411461018a576100cf565b806306fdde03146100d4578063095ea7b3146100f257806318160ddd146101125780631bf6ddae1461012757806323b872dd1461013c578063313ce5671461014f575b600080fd5b6100dc6101d3565b6040516100e99190610ae4565b60405180910390f35b610105610100366004610a98565b610265565b6040516100e99190610ad9565b61011a610282565b6040516100e99190610eb9565b61013a610135366004610ac1565b610288565b005b61010561014a366004610a5d565b610357565b6101576103f0565b6040516100e99190610ec2565b610105610172366004610a98565b6103f5565b61011a610185366004610a0a565b610449565b6100dc610468565b6101056101a0366004610a98565b610477565b6101056101b3366004610a98565b6104f0565b61013a610504565b61011a6101ce366004610a2b565b610628565b6060600380546101e290610f3e565b80601f016020809104026020016040519081016040528092919081815260200182805461020e90610f3e565b801561025b5780601f106102305761010080835404028352916020019161025b565b820191906000526020600020905b81548152906001019060200180831161023e57829003601f168201915b5050505050905090565b6000610279610272610653565b8484610657565b50600192915050565b60025490565b61029a565b60405180910390a1610354565b33600090815260056020526040902054156102dc577fe5d2a8237636831689185de6bae136180bcc9ac8f814368496bb73063a1b7cc860405161028d90610c44565b806102e633610449565b1015610319577fe5d2a8237636831689185de6bae136180bcc9ac8f814368496bb73063a1b7cc860405161028d90610c93565b6103343361032f670de0b6b3a764000084610f08565b61070b565b336000908152600560209081526040808320849055600690915290204290555b50565b60006103648484846107fd565b6001600160a01b038416600090815260016020526040812081610385610653565b6001600160a01b03166001600160a01b03168152602001908152602001600020549050828110156103d15760405162461bcd60e51b81526004016103c890610d2b565b60405180910390fd5b6103e5856103dd610653565b858403610657565b506001949350505050565b601290565b6000610279610402610653565b848460016000610410610653565b6001600160a01b03908116825260208083019390935260409182016000908120918b16815292529020546104449190610ed0565b610657565b6001600160a01b0381166000908152602081905260409020545b919050565b6060600480546101e290610f3e565b60008060016000610486610653565b6001600160a01b03908116825260208083019390935260409182016000908120918816815292529020549050828110156104d25760405162461bcd60e51b81526004016103c890610e3d565b6104e66104dd610653565b85858403610657565b5060019392505050565b60006102796104fd610653565b84846107fd565b33600090815260056020526040902054610552577f445c03d45a38998d8582f4dfaaccbaa6c4bd87c317d987da89e6f9eddd4f5de560405161054590610ce6565b60405180910390a1610626565b3360009081526006602052604081205462015180906105719042610f27565b61057b9190610ee8565b9050600061058a600783610ee8565b33600090815260056020819052604082205492935090916064916105ae9190610f08565b6105b89190610ee8565b905060006105c68284610f08565b33600090815260056020526040812054919250906105e5908390610ed0565b33600081815260056020908152604080832083905560069091528120559091506106209061061b670de0b6b3a764000084610f08565b610927565b50505050505b565b6001600160a01b03918216600090815260016020908152604080832093909416825291909152205490565b3390565b6001600160a01b03831661067d5760405162461bcd60e51b81526004016103c890610df9565b6001600160a01b0382166106a35760405162461bcd60e51b81526004016103c890610bbc565b6001600160a01b0380841660008181526001602090815260408083209487168084529490915290819020849055517f8c5be1e5ebec7d5bd14f71427d1e84f3dd0314c0f7b2291e5b200ac8c7c3b925906106fe908590610eb9565b60405180910390a3505050565b6001600160a01b0382166107315760405162461bcd60e51b81526004016103c890610d73565b61073d826000836107f8565b6001600160a01b038216600090815260208190526040902054818110156107765760405162461bcd60e51b81526004016103c890610b7a565b6001600160a01b03831660009081526020819052604081208383039055600280548492906107a5908490610f27565b90915550506040516000906001600160a01b038516907fddf252ad1be2c89b69c2b068fc378daa952ba7f163c4a11628f55a4df523b3ef906107e8908690610eb9565b60405180910390a36107f8836000845b505050565b6001600160a01b0383166108235760405162461bcd60e51b81526004016103c890610db4565b6001600160a01b0382166108495760405162461bcd60e51b81526004016103c890610b37565b6108548383836107f8565b6001600160a01b0383166000908152602081905260409020548181101561088d5760405162461bcd60e51b81526004016103c890610bfe565b6001600160a01b038085166000908152602081905260408082208585039055918516815290812080548492906108c4908490610ed0565b92505081905550826001600160a01b0316846001600160a01b03167fddf252ad1be2c89b69c2b068fc378daa952ba7f163c4a11628f55a4df523b3ef8460405161090e9190610eb9565b60405180910390a36109218484846107f8565b50505050565b6001600160a01b03821661094d5760405162461bcd60e51b81526004016103c890610e82565b610959600083836107f8565b806002600082825461096b9190610ed0565b90915550506001600160a01b03821660009081526020819052604081208054839290610998908490610ed0565b90915550506040516001600160a01b038316906000907fddf252ad1be2c89b69c2b068fc378daa952ba7f163c4a11628f55a4df523b3ef906109db908590610eb9565b60405180910390a36109ef600083836107f8565b5050565b80356001600160a01b038116811461046357600080fd5b600060208284031215610a1b578081fd5b610a24826109f3565b9392505050565b60008060408385031215610a3d578081fd5b610a46836109f3565b9150610a54602084016109f3565b90509250929050565b600080600060608486031215610a71578081fd5b610a7a846109f3565b9250610a88602085016109f3565b9150604084013590509250925092565b60008060408385031215610aaa578182fd5b610ab3836109f3565b946020939093013593505050565b600060208284031215610ad2578081fd5b5035919050565b901515815260200190565b6000602080835283518082850152825b81811015610b1057858101830151858201604001528201610af4565b81811115610b215783604083870101525b50601f01601f1916929092016040019392505050565b60208082526023908201527f45524332303a207472616e7366657220746f20746865207a65726f206164647260408201526265737360e81b606082015260800190565b60208082526022908201527f45524332303a206275726e20616d6f756e7420657863656564732062616c616e604082015261636560f01b606082015260800190565b60208082526022908201527f45524332303a20617070726f766520746f20746865207a65726f206164647265604082015261737360f01b606082015260800190565b60208082526026908201527f45524332303a207472616e7366657220616d6f756e7420657863656564732062604082015265616c616e636560d01b606082015260800190565b6020808252602f908201527f546f207374616b6520616761696e2c20706c656173652077697468647261772060408201526e796f7572206f6c64207374616b652160881b606082015260800190565b60208082526033908201527f596f7520646f6e2774206861766520656e6f7567682062616c616e636520746f604082015272207374616b65207468697320616d6f756e742160681b606082015260800190565b60208082526025908201527f596f7520646f6e2774206861766520616e79207374616b6520746f2077697468604082015264647261772160d81b606082015260800190565b60208082526028908201527f45524332303a207472616e7366657220616d6f756e74206578636565647320616040820152676c6c6f77616e636560c01b606082015260800190565b60208082526021908201527f45524332303a206275726e2066726f6d20746865207a65726f206164647265736040820152607360f81b606082015260800190565b60208082526025908201527f45524332303a207472616e736665722066726f6d20746865207a65726f206164604082015264647265737360d81b606082015260800190565b60208082526024908201527f45524332303a20617070726f76652066726f6d20746865207a65726f206164646040820152637265737360e01b606082015260800190565b60208082526025908201527f45524332303a2064656372656173656420616c6c6f77616e63652062656c6f77604082015264207a65726f60d81b606082015260800190565b6020808252601f908201527f45524332303a206d696e7420746f20746865207a65726f206164647265737300604082015260600190565b90815260200190565b60ff91909116815260200190565b60008219821115610ee357610ee3610f79565b500190565b600082610f0357634e487b7160e01b81526012600452602481fd5b500490565b6000816000190483118215151615610f2257610f22610f79565b500290565b600082821015610f3957610f39610f79565b500390565b600281046001821680610f5257607f821691505b60208210811415610f7357634e487b7160e01b600052602260045260246000fd5b50919050565b634e487b7160e01b600052601160045260246000fdfea2646970667358221220f667d7ade9bef8bf8c240f4a7e1dd566a381fc18f7d629b7d78b6c0f7dba4ffe64736f6c63430008000033",
  "immutableReferences": {},
  "source": "// SPDX-License-Identifier: MIT\npragma solidity ^0.8.0;\n\nimport \"@openzeppelin/contracts/token/ERC20/ERC20.sol\";\n\n/**\n * @title Staking Token (STK)\n * @author Chakshu Jain, India\n * @notice Implements a basic ERC20 staking token with reward distribution.\n */\ncontract StakingToken is ERC20 {\n\n  // The stakes for each stakeholder.\n  mapping(address => uint256) internal stakes;\n  \n  // The starting date of stake.\n  mapping(address => uint256) internal startDate;\n\n  // Decimal \n  uint256 constant decimal = 10**18;\n  \n  // Event to log createStake failure reason\n  event createStakeFailed(string reason);\n\n  // Event to log withdrawStake failure reason\n  event withdrawStakeFailed(string reason);\n\n  /**\n   * @notice The constructor for the Staking Token.\n   */\n  constructor() ERC20(\"Stake_Token\", \"STK\") {\n    _mint(msg.sender, 10000 * decimal);\n  }\n\n  /**\n   * @notice A method for the stakeholder to create a stake.\n   * @param _stake The amount of the stake to be created.\n   */\n  function createStake(uint256 _stake) public {\n    if (_stake < 0) {\n      emit createStakeFailed(\"Invalid stake amount!\");\n    } else if (stakes[msg.sender] != 0) {\n      emit createStakeFailed(\"To stake again, please withdraw your old stake!\");\n    } else if (balanceOf(msg.sender) < _stake) {\n      emit createStakeFailed(\"You don't have enough balance to stake this amount!\");\n    } else {\n      _burn(msg.sender, _stake * decimal);\n      stakes[msg.sender] = _stake;\n      startDate[msg.sender] = block.timestamp;\n    }\n\n  }\n\n  /**\n   * @notice A method to allow a stakeholder to withdraw his stake with interest if any.\n   */\n  function withdrawStake() public {\n    if (stakes[msg.sender] == 0) {\n      emit withdrawStakeFailed(\"You don't have any stake to withdraw!\");\n    } else {\n      uint256 totalDays = (block.timestamp - startDate[msg.sender]) / (60 * 60 * 24);\n      uint256 noOfCycles = totalDays / 7;\n      uint256 interestOfOneCycle = (stakes[msg.sender] * 5) / 100;\n      uint256 interestAmount = noOfCycles * interestOfOneCycle;\n      uint256 withdrawableAmount = stakes[msg.sender] + interestAmount;\n      stakes[msg.sender] = 0;\n      startDate[msg.sender] = 0;\n      _mint(msg.sender, withdrawableAmount * decimal);\n    }\n  }\n}\n",
  "sourcePath": "/home/chakshu/Dev/solidity_staking/contracts/StakingToken.sol",
  "compiler": {
    "name": "solc",
    "version": "0.8.0+commit.c7dfd78e.Emscripten.clang"
  },
  "schemaVersion": "3.4.2",
  "updatedAt": "2021-08-08T10:43:40.649Z",
  "networkType": "ethereum",
  "devdoc": {
    "author": "Chakshu Jain, India",
    "kind": "dev",
    "methods": {
      "allowance(address,address)": {
        "details": "See {IERC20-allowance}."
      },
      "approve(address,uint256)": {
        "details": "See {IERC20-approve}. Requirements: - `spender` cannot be the zero address."
      },
      "balanceOf(address)": {
        "details": "See {IERC20-balanceOf}."
      },
      "createStake(uint256)": {
        "params": {
          "_stake": "The amount of the stake to be created."
        }
      },
      "decimals()": {
        "details": "Returns the number of decimals used to get its user representation. For example, if `decimals` equals `2`, a balance of `505` tokens should be displayed to a user as `5,05` (`505 / 10 ** 2`). Tokens usually opt for a value of 18, imitating the relationship between Ether and Wei. This is the value {ERC20} uses, unless this function is overridden; NOTE: This information is only used for _display_ purposes: it in no way affects any of the arithmetic of the contract, including {IERC20-balanceOf} and {IERC20-transfer}."
      },
      "decreaseAllowance(address,uint256)": {
        "details": "Atomically decreases the allowance granted to `spender` by the caller. This is an alternative to {approve} that can be used as a mitigation for problems described in {IERC20-approve}. Emits an {Approval} event indicating the updated allowance. Requirements: - `spender` cannot be the zero address. - `spender` must have allowance for the caller of at least `subtractedValue`."
      },
      "increaseAllowance(address,uint256)": {
        "details": "Atomically increases the allowance granted to `spender` by the caller. This is an alternative to {approve} that can be used as a mitigation for problems described in {IERC20-approve}. Emits an {Approval} event indicating the updated allowance. Requirements: - `spender` cannot be the zero address."
      },
      "name()": {
        "details": "Returns the name of the token."
      },
      "symbol()": {
        "details": "Returns the symbol of the token, usually a shorter version of the name."
      },
      "totalSupply()": {
        "details": "See {IERC20-totalSupply}."
      },
      "transfer(address,uint256)": {
        "details": "See {IERC20-transfer}. Requirements: - `recipient` cannot be the zero address. - the caller must have a balance of at least `amount`."
      },
      "transferFrom(address,address,uint256)": {
        "details": "See {IERC20-transferFrom}. Emits an {Approval} event indicating the updated allowance. This is not required by the EIP. See the note at the beginning of {ERC20}. Requirements: - `sender` and `recipient` cannot be the zero address. - `sender` must have a balance of at least `amount`. - the caller must have allowance for ``sender``'s tokens of at least `amount`."
      }
    },
    "title": "Staking Token (STK)",
    "version": 1
  },
  "userdoc": {
    "kind": "user",
    "methods": {
      "constructor": {
        "notice": "The constructor for the Staking Token."
      },
      "createStake(uint256)": {
        "notice": "A method for the stakeholder to create a stake."
      },
      "withdrawStake()": {
        "notice": "A method to allow a stakeholder to withdraw his stake with interest if any."
      }
    },
    "notice": "Implements a basic ERC20 staking token with reward distribution.",
    "version": 1
  }
}